{
  "contractName": "StatementTable",
  "abi": [
    {
      "inputs": [],
      "payable": false,
      "stateMutability": "nonpayable",
      "type": "constructor"
    },
    {
      "anonymous": false,
      "inputs": [
        {
          "indexed": false,
          "name": "type_",
          "type": "string"
        },
        {
          "indexed": false,
          "name": "name",
          "type": "string"
        },
        {
          "indexed": false,
          "name": "trans",
          "type": "address"
        },
        {
          "indexed": false,
          "name": "subtime",
          "type": "uint256"
        }
      ],
      "name": "cre_statement",
      "type": "event"
    },
    {
      "constant": false,
      "inputs": [
        {
          "name": "type_",
          "type": "string"
        },
        {
          "name": "name",
          "type": "string"
        },
        {
          "name": "detail",
          "type": "string"
        },
        {
          "name": "time",
          "type": "uint32"
        }
      ],
      "name": "createstatement",
      "outputs": [],
      "payable": false,
      "stateMutability": "nonpayable",
      "type": "function"
    },
    {
      "constant": true,
      "inputs": [],
      "name": "getstatementnum",
      "outputs": [
        {
          "name": "",
          "type": "uint256"
        }
      ],
      "payable": false,
      "stateMutability": "view",
      "type": "function"
    },
    {
      "constant": true,
      "inputs": [
        {
          "name": "i",
          "type": "uint256"
        }
      ],
      "name": "getallstatement",
      "outputs": [
        {
          "name": "",
          "type": "string"
        },
        {
          "name": "",
          "type": "string"
        },
        {
          "name": "",
          "type": "uint256"
        },
        {
          "name": "",
          "type": "address"
        },
        {
          "name": "",
          "type": "uint256"
        }
      ],
      "payable": false,
      "stateMutability": "view",
      "type": "function"
    }
  ],
  "bytecode": "0x608060405234801561001057600080fd5b506000600181905550612597806100286000396000f3006080604052600436106200005b576000357c0100000000000000000000000000000000000000000000000000000000900463ffffffff168063576c681714620000605780639a18951514620000a8578063efbcc94d14620000d6575b600080fd5b3480156200006d57600080fd5b506200008c6004803603620000869190810190620007b4565b62000106565b6040516200009f9594939291906200091c565b60405180910390f35b348015620000b557600080fd5b50620000d46004803603620000ce9190810190620006fd565b62000306565b005b348015620000e357600080fd5b50620000ee620005a9565b604051620000fd919062000987565b60405180910390f35b60608060008060006002868154811015156200011e57fe5b906000526020600020016003878154811015156200013857fe5b906000526020600020016004888154811015156200015257fe5b90600052602060002001546005898154811015156200016d57fe5b9060005260206000200160009054906101000a900473ffffffffffffffffffffffffffffffffffffffff1660068a815481101515620001a857fe5b9060005260206000200154848054600181600116156101000203166002900480601f0160208091040260200160405190810160405280929190818152602001828054600181600116156101000203166002900480156200024c5780601f1062000220576101008083540402835291602001916200024c565b820191906000526020600020905b8154815290600101906020018083116200022e57829003601f168201915b50505050509450838054600181600116156101000203166002900480601f016020809104026020016040519081016040528092919081815260200182805460018160011615610100020316600290048015620002ec5780601f10620002c057610100808354040283529160200191620002ec565b820191906000526020600020905b815481529060010190602001808311620002ce57829003601f168201915b505050505093509450945094509450945091939590929450565b6000848484843362000317620005b3565b62000327959493929190620008aa565b604051809103906000f08015801562000344573d6000803e3d6000fd5b50600080600154815260200190815260200160002060006101000a81548173ffffffffffffffffffffffffffffffffffffffff021916908373ffffffffffffffffffffffffffffffffffffffff1602179055504290506002859080600181540180825580915050906001820390600052602060002001600090919290919091509080519060200190620003d9929190620005c4565b505060038490806001815401808255809150509060018203906000526020600020016000909192909190915090805190602001906200041a929190620005c4565b505060048190806001815401808255809150509060018203906000526020600020016000909192909190915055506005600080600154815260200190815260200160002060009054906101000a900473ffffffffffffffffffffffffffffffffffffffff1690806001815401808255809150509060018203906000526020600020016000909192909190916101000a81548173ffffffffffffffffffffffffffffffffffffffff021916908373ffffffffffffffffffffffffffffffffffffffff16021790555050600662015180830263ffffffff16820190806001815401808255809150509060018203906000526020600020016000909192909190915055506001600081548092919060010191905055507f1412df7f908251dc3305411d1d261e147ba5ec716ace7fecc89f79a3f84656a685856000806001805403815260200190815260200160002060009054906101000a900473ffffffffffffffffffffffffffffffffffffffff16846040516200059a94939291906200084f565b60405180910390a15050505050565b6000600154905090565b604051611a958062000ac983390190565b828054600181600116156101000203166002900490600052602060002090601f016020900481019282601f106200060757805160ff191683800117855562000638565b8280016001018555821562000638579182015b82811115620006375782518255916020019190600101906200061a565b5b5090506200064791906200064b565b5090565b6200067091905b808211156200066c57600081600090555060010162000652565b5090565b90565b600082601f83011215156200068757600080fd5b81356200069e6200069882620009d2565b620009a4565b91508082526020830160208301858383011115620006bb57600080fd5b620006c883828462000a72565b50505092915050565b6000620006df823562000a44565b905092915050565b6000620006f5823562000a4e565b905092915050565b600080600080608085870312156200071457600080fd5b600085013567ffffffffffffffff8111156200072f57600080fd5b6200073d8782880162000673565b945050602085013567ffffffffffffffff8111156200075b57600080fd5b620007698782880162000673565b935050604085013567ffffffffffffffff8111156200078757600080fd5b620007958782880162000673565b9250506060620007a887828801620006e7565b91505092959194509250565b600060208284031215620007c757600080fd5b6000620007d784828501620006d1565b91505092915050565b620007eb8162000a0a565b82525050565b6000620007fe82620009ff565b8084526200081481602086016020860162000a81565b6200081f8162000ab7565b602085010191505092915050565b620008388162000a2a565b82525050565b620008498162000a5e565b82525050565b600060808201905081810360008301526200086b8187620007f1565b90508181036020830152620008818186620007f1565b9050620008926040830185620007e0565b620008a160608301846200082d565b95945050505050565b600060a0820190508181036000830152620008c68188620007f1565b90508181036020830152620008dc8187620007f1565b90508181036040830152620008f28186620007f1565b90506200090360608301856200083e565b620009126080830184620007e0565b9695505050505050565b600060a0820190508181036000830152620009388188620007f1565b905081810360208301526200094e8187620007f1565b90506200095f60408301866200082d565b6200096e6060830185620007e0565b6200097d60808301846200082d565b9695505050505050565b60006020820190506200099e60008301846200082d565b92915050565b6000604051905081810181811067ffffffffffffffff82111715620009c857600080fd5b8060405250919050565b600067ffffffffffffffff821115620009ea57600080fd5b601f19601f8301169050602081019050919050565b600081519050919050565b600073ffffffffffffffffffffffffffffffffffffffff82169050919050565b6000819050919050565b600063ffffffff82169050919050565b6000819050919050565b600063ffffffff82169050919050565b600062000a6b8262000a34565b9050919050565b82818337600083830152505050565b60005b8381101562000aa157808201518184015260208101905062000a84565b8381111562000ab1576000848401525b50505050565b6000601f19601f8301169050919050560060806040523480156200001157600080fd5b5060405162001a9538038062001a958339810180604052620000379190810190620002db565b806000806101000a81548173ffffffffffffffffffffffffffffffffffffffff021916908373ffffffffffffffffffffffffffffffffffffffff16021790555060e06040519081016040528086815260200185815260200184815260200160008152602001600081526020016040805190810160405280600781526020017f77616974696e67000000000000000000000000000000000000000000000000008152508152602001428152506003600082015181600001908051906020019062000102929190620001a2565b50602082015181600101908051906020019062000121929190620001a2565b50604082015181600201908051906020019062000140929190620001a2565b50606082015181600301556080820151816004015560a082015181600501908051906020019062000173929190620001a2565b5060c082015181600601559050506201518082024201600c819055506000600b81905550505050505062000463565b828054600181600116156101000203166002900490600052602060002090601f016020900481019282601f10620001e557805160ff191683800117855562000216565b8280016001018555821562000216579182015b8281111562000215578251825591602001919060010190620001f8565b5b50905062000225919062000229565b5090565b6200024e91905b808211156200024a57600081600090555060010162000230565b5090565b90565b60006200025f825162000403565b905092915050565b600082601f83011215156200027b57600080fd5b8151620002926200028c82620003d6565b620003a8565b91508082526020830160208301858383011115620002af57600080fd5b620002bc8382846200042d565b50505092915050565b6000620002d3825162000423565b905092915050565b600080600080600060a08688031215620002f457600080fd5b600086015167ffffffffffffffff8111156200030f57600080fd5b6200031d8882890162000267565b955050602086015167ffffffffffffffff8111156200033b57600080fd5b620003498882890162000267565b945050604086015167ffffffffffffffff8111156200036757600080fd5b620003758882890162000267565b93505060606200038888828901620002c5565b92505060806200039b8882890162000251565b9150509295509295909350565b6000604051905081810181811067ffffffffffffffff82111715620003cc57600080fd5b8060405250919050565b600067ffffffffffffffff821115620003ee57600080fd5b601f19601f8301169050602081019050919050565b600073ffffffffffffffffffffffffffffffffffffffff82169050919050565b6000819050919050565b60005b838110156200044d57808201518184015260208101905062000430565b838111156200045d576000848401525b50505050565b61162280620004736000396000f300608060405260043610610099576000357c0100000000000000000000000000000000000000000000000000000000900463ffffffff16806318fc882a1461009e57806328075afd146100c9578063391fa2eb146100f257806341c0e1b51461011d5780636994987c14610134578063858bc1e4146101525780638d1b3a111461018f578063b36c6a46146101c0578063d2360c08146101eb575b600080fd5b3480156100aa57600080fd5b506100b3610214565b6040516100c091906112da565b60405180910390f35b3480156100d557600080fd5b506100f060048036036100eb9190810190610fd1565b610239565b005b3480156100fe57600080fd5b5061010761042b565b60405161011491906114c2565b60405180910390f35b34801561012957600080fd5b50610132610431565b005b61013c610542565b60405161014991906112f5565b60405180910390f35b34801561015e57600080fd5b5061017960048036036101749190810190610fa8565b610774565b60405161018691906112f5565b60405180910390f35b34801561019b57600080fd5b506101a46108c0565b6040516101b79796959493929190611317565b60405180910390f35b3480156101cc57600080fd5b506101d5610b78565b6040516101e291906114c2565b60405180910390f35b3480156101f757600080fd5b50610212600480360361020d9190810190610f7f565b610b82565b005b6000809054906101000a900473ffffffffffffffffffffffffffffffffffffffff1681565b6000600c5442101515610281576040517f08c379a0000000000000000000000000000000000000000000000000000000008152600401610278906113e2565b60405180910390fd5b600260003373ffffffffffffffffffffffffffffffffffffffff1673ffffffffffffffffffffffffffffffffffffffff16815260200190815260200160002090506102cb33610db9565b151561030c576040517f08c379a000000000000000000000000000000000000000000000000000000000815260040161030390611482565b60405180910390fd5b8060000160009054906101000a900460ff16151515610360576040517f08c379a0000000000000000000000000000000000000000000000000000000008152600401610357906113c2565b60405180910390fd5b60018160000160006101000a81548160ff021916908315150217905550600083141561039e5760016003800160008282540192505081905550610426565b600a8290806001815401808255809150509060018203906000526020600020016000909192909190915090805190602001906103db929190610e5c565b50506001600b600082825401925050819055507f6d1b7484a72ff45894e0b528d151852a33f4cd7a9ee7590ca421de500af0d8638260405161041d91906112f5565b60405180910390a15b505050565b600c5481565b600c5442101515610477576040517f08c379a000000000000000000000000000000000000000000000000000000000815260040161046e906113e2565b60405180910390fd5b6000809054906101000a900473ffffffffffffffffffffffffffffffffffffffff1673ffffffffffffffffffffffffffffffffffffffff163373ffffffffffffffffffffffffffffffffffffffff16141515610508576040517f08c379a00000000000000000000000000000000000000000000000000000000081526004016104ff906114a2565b60405180910390fd5b6000809054906101000a900473ffffffffffffffffffffffffffffffffffffffff1673ffffffffffffffffffffffffffffffffffffffff16ff5b6060600c544211151561058a576040517f08c379a0000000000000000000000000000000000000000000000000000000008152600401610581906113a2565b60405180910390fd5b6000809054906101000a900473ffffffffffffffffffffffffffffffffffffffff1673ffffffffffffffffffffffffffffffffffffffff163373ffffffffffffffffffffffffffffffffffffffff1614151561061b576040517f08c379a000000000000000000000000000000000000000000000000000000000815260040161061290611462565b60405180910390fd5b600360026003600401540281151561062f57fe5b0460038001541015801561065857506000600360026003600401540281151561065457fe5b0414155b156106e9576040805190810160405280600781526020017f537563636565640000000000000000000000000000000000000000000000000081525090506040805190810160405280600781526020017f7375636365737300000000000000000000000000000000000000000000000000815250600360050190805190602001906106e3929190610e5c565b50610771565b6040805190810160405280600681526020017f4661696c6564000000000000000000000000000000000000000000000000000081525090506040805190810160405280600581526020017f66616c73650000000000000000000000000000000000000000000000000000008152506003600501908051906020019061076f929190610e5c565b505b90565b60606000809054906101000a900473ffffffffffffffffffffffffffffffffffffffff1673ffffffffffffffffffffffffffffffffffffffff163373ffffffffffffffffffffffffffffffffffffffff16141515610807576040517f08c379a00000000000000000000000000000000000000000000000000000000081526004016107fe90611462565b60405180910390fd5b600a8281548110151561081657fe5b906000526020600020018054600181600116156101000203166002900480601f0160208091040260200160405190810160405280929190818152602001828054600181600116156101000203166002900480156108b45780601f10610889576101008083540402835291602001916108b4565b820191906000526020600020905b81548152906001019060200180831161089757829003601f168201915b50505050509050919050565b60608060606000806060600060036000016003600101600360020160038001546003600401546003600501600360060154868054600181600116156101000203166002900480601f0160208091040260200160405190810160405280929190818152602001828054600181600116156101000203166002900480156109865780601f1061095b57610100808354040283529160200191610986565b820191906000526020600020905b81548152906001019060200180831161096957829003601f168201915b50505050509650858054600181600116156101000203166002900480601f016020809104026020016040519081016040528092919081815260200182805460018160011615610100020316600290048015610a225780601f106109f757610100808354040283529160200191610a22565b820191906000526020600020905b815481529060010190602001808311610a0557829003601f168201915b50505050509550848054600181600116156101000203166002900480601f016020809104026020016040519081016040528092919081815260200182805460018160011615610100020316600290048015610abe5780601f10610a9357610100808354040283529160200191610abe565b820191906000526020600020905b815481529060010190602001808311610aa157829003601f168201915b50505050509450818054600181600116156101000203166002900480601f016020809104026020016040519081016040528092919081815260200182805460018160011615610100020316600290048015610b5a5780601f10610b2f57610100808354040283529160200191610b5a565b820191906000526020600020905b815481529060010190602001808311610b3d57829003601f168201915b50505050509150965096509650965096509650965090919293949596565b6000600b54905090565b600c5442101515610bc8576040517f08c379a0000000000000000000000000000000000000000000000000000000008152600401610bbf906113e2565b60405180910390fd5b6000809054906101000a900473ffffffffffffffffffffffffffffffffffffffff1673ffffffffffffffffffffffffffffffffffffffff163373ffffffffffffffffffffffffffffffffffffffff16141515610c59576040517f08c379a0000000000000000000000000000000000000000000000000000000008152600401610c5090611422565b60405180910390fd5b60001515610c6682610db9565b1515141515610caa576040517f08c379a0000000000000000000000000000000000000000000000000000000008152600401610ca190611442565b60405180910390fd5b600260008273ffffffffffffffffffffffffffffffffffffffff1673ffffffffffffffffffffffffffffffffffffffff16815260200190815260200160002060000160009054906101000a900460ff16151515610d3c576040517f08c379a0000000000000000000000000000000000000000000000000000000008152600401610d3390611402565b60405180910390fd5b60018190806001815401808255809150509060018203906000526020600020016000909192909190916101000a81548173ffffffffffffffffffffffffffffffffffffffff021916908373ffffffffffffffffffffffffffffffffffffffff16021790555050600160036004016000828254019250508190555050565b600080600090505b600180549050811015610e5157600181815481101515610ddd57fe5b9060005260206000200160009054906101000a900473ffffffffffffffffffffffffffffffffffffffff1673ffffffffffffffffffffffffffffffffffffffff168373ffffffffffffffffffffffffffffffffffffffff161415610e445760019150610e56565b8080600101915050610dc1565b600091505b50919050565b828054600181600116156101000203166002900490600052602060002090601f016020900481019282601f10610e9d57805160ff1916838001178555610ecb565b82800160010185558215610ecb579182015b82811115610eca578251825591602001919060010190610eaf565b5b509050610ed89190610edc565b5090565b610efe91905b80821115610efa576000816000905550600101610ee2565b5090565b90565b6000610f0d823561156b565b905092915050565b600082601f8301121515610f2857600080fd5b8135610f3b610f368261150a565b6114dd565b91508082526020830160208301858383011115610f5757600080fd5b610f62838284611595565b50505092915050565b6000610f77823561158b565b905092915050565b600060208284031215610f9157600080fd5b6000610f9f84828501610f01565b91505092915050565b600060208284031215610fba57600080fd5b6000610fc884828501610f6b565b91505092915050565b60008060408385031215610fe457600080fd5b6000610ff285828601610f6b565b925050602083013567ffffffffffffffff81111561100f57600080fd5b61101b85828601610f15565b9150509250929050565b61102e81611541565b82525050565b600061103f82611536565b8084526110538160208601602086016115a4565b61105c816115d7565b602085010191505092915050565b6000602082527f596f752063616e277420646f2074686973206168656164206f662074696d652e6020830152604082019050919050565b6000601282527f416c726561647920636f6e6669726d65642e00000000000000000000000000006020830152604082019050919050565b6000601d82527f596f752776652065786365656465642074686520646561646c696e652e0000006020830152604082019050919050565b6000602082527f54686520636f6e6669726d6f7220616c726561647920636f6e6669726d65642e6020830152604082019050919050565b6000603582527f4f6e6c792070726573656e7465722063616e207265717565737420746f20636f60208301527f6e6669726d20746869732073746174656d656e742e00000000000000000000006040830152606082019050919050565b6000601e82527f596f7527766520616c72656164792061736b65642074686520757365722e00006020830152604082019050919050565b6000602482527f4f6e6c792070726573656e7465722063616e2067657420746865206f70696e6960208301527f6f6e732e000000000000000000000000000000000000000000000000000000006040830152606082019050919050565b6000601682527f596f75277265206e6f7420617574686f72697a65642e000000000000000000006020830152604082019050919050565b6000602a82527f4f6e6c79207468652070726573656e7465722063616e206b696c6c207468652060208301527f73746174656d656e742e000000000000000000000000000000000000000000006040830152606082019050919050565b6112d481611561565b82525050565b60006020820190506112ef6000830184611025565b92915050565b6000602082019050818103600083015261130f8184611034565b905092915050565b600060e0820190508181036000830152611331818a611034565b905081810360208301526113458189611034565b905081810360408301526113598188611034565b905061136860608301876112cb565b61137560808301866112cb565b81810360a08301526113878185611034565b905061139660c08301846112cb565b98975050505050505050565b600060208201905081810360008301526113bb8161106a565b9050919050565b600060208201905081810360008301526113db816110a1565b9050919050565b600060208201905081810360008301526113fb816110d8565b9050919050565b6000602082019050818103600083015261141b8161110f565b9050919050565b6000602082019050818103600083015261143b81611146565b9050919050565b6000602082019050818103600083015261145b816111a3565b9050919050565b6000602082019050818103600083015261147b816111da565b9050919050565b6000602082019050818103600083015261149b81611237565b9050919050565b600060208201905081810360008301526114bb8161126e565b9050919050565b60006020820190506114d760008301846112cb565b92915050565b6000604051905081810181811067ffffffffffffffff8211171561150057600080fd5b8060405250919050565b600067ffffffffffffffff82111561152157600080fd5b601f19601f8301169050602081019050919050565b600081519050919050565b600073ffffffffffffffffffffffffffffffffffffffff82169050919050565b6000819050919050565b600073ffffffffffffffffffffffffffffffffffffffff82169050919050565b6000819050919050565b82818337600083830152505050565b60005b838110156115c25780820151818401526020810190506115a7565b838111156115d1576000848401525b50505050565b6000601f19601f83011690509190505600a265627a7a72305820e4a80cfdd8f330bd61adb57cda9f8ebc26165ff453677ec0e45498a7aea34ea16c6578706572696d656e74616cf50037a265627a7a7230582094fb9c86499a84458bc7ca396ad93c302ea527a6ab165cf2eb20001e3c7a06f66c6578706572696d656e74616cf50037",
  "source": "pragma solidity >=0.4.22 <0.6.0;\npragma experimental ABIEncoderV2;\n\nimport \"./FinancialStatement.sol\";\n\ncontract StatementTable {\n    mapping(uint256 => FinancialStatement) deployedStatements;\n    uint256 Statement_num;\n    constructor() public {\n        Statement_num = 0;\n    }\n    \n    string[] statement_type;\n    string[] statement_name;\n    uint[] statement_subtime;\n    address[] statement_add;\n    uint[] statement_endtime;\n    \n    event cre_statement(string type_, string name, address trans, uint subtime);\n\n    function createstatement (string type_, string name,string detail, uint32 time) public{\n        deployedStatements[Statement_num] = new FinancialStatement(type_, name, detail, time, msg.sender);\n        uint subtime = now;\n        statement_type.push(type_);\n        statement_name.push(name);\n        statement_subtime.push(subtime);\n        statement_add.push(address(deployedStatements[Statement_num]));\n        statement_endtime.push(subtime + time * 1 days);\n        Statement_num++;\n        emit cre_statement(type_, name, address(deployedStatements[Statement_num-1]), subtime);\n    }\n\n    function getstatementnum() public view returns (uint256) {\n        return Statement_num;\n    }\n    \n    function getallstatement(uint i) public view returns (string, string, uint, address, uint) {\n        return (statement_type[i],statement_name[i],statement_subtime[i],statement_add[i], statement_endtime[i]);\n    }\n    \n}",
  "sourcePath": "/home/user/Desktop/FinancialStatement/contracts/StatementTable.sol",
  "compiler": {
    "name": "solc",
    "version": "0.4.24+commit.e67f0147.Emscripten.clang"
  },
  "schemaVersion": "2.0.1",
  "updatedAt": "2018-12-30T15:51:53.090Z"
}